S018000030305F4C45445F4F6E5F536F757263652E737265638C
S1130000702400209502000091020000910200007B
S113001000000000000000000000000000000000DC
S11300200000000000000000000000009102000039
S11300300000000000000000910200009102000096
S11300409102000091020000910200009102000060
S11300509102000091020000910200009102000050
S11300609102000091020000910200009102000040
S11300709102000091020000910200009102000030
S11300809102000091020000910200009102000020
S11300909102000091020000910200009102000010
S11300A09102000091020000910200009102000000
S11300B00000000010B5064C2378002B07D1054B37
S11300C0002B02D0044800E000BF0123237010BDC0
S11300D02C04002000000000F0050000084B10B5BF
S11300E0002B03D00749084800E000BF0748036815
S11300F0002B00D110BD064B002BFBD09847F9E72D
S11301000000000030040020F0050000F0050000AD
S11301100000000070B5184B9847184B80208002EF
S11301201860196880225203114319601449086049
S1130130086802430A6049215A5C012002435A5468
S113014015395D5C0F240F222A4040252A435A5456
S113015096315A5C02435A54B522995CA143052551
S1130160294399546B3A995C0143995435215A5C5B
S1130170A2432A435A5470BD850100000044004143
S113018014440041344A116AC0239B000B43136298
S1130190324B1A6A32490A401A621A6A02210A4325
S11301A01A62304A0131FF3191602F4951602F4A60
S11301B09A829A8A02210A439A821A00D3689B0778
S11301C0FCD5284B0222FF329A60294A5A601A0051
S11301D05378DB09FCD1274A53681E218B431C3911
S11301E00B4353608222D2011E4B5A801B4AD368B0
S11301F0DB06FCD50222194B9A841A00D368DB066D
S1130200FCD51D4A154BDA621A00D368DB06FCD50F
S11302101A4B1A6811498B6A920E920218480340CD
S113022013438B620A00D368DB06FCD50B4A938C1C
S113023014490B439384D3681B06FCD5D3685B062F
S1130240F9D5114A074B5A601A005378DB09FCD1DF
S11302500E4A044B5A8070470004004000080040D6
S1130260FFFCFFFF000C0040020609000C07000021
S113027001050B0000400041B905FF7D24608000AA
S1130280FF03FFFF0608000000070B001A400000F0
S1130290FEE70000F8B52A4A2A4B9A4211D01A0008
S11302A0294B9A420DD2294A03339B1A9B080133E6
S11302B09B000022234822498C58845004329A42DD
S11302C0FAD1234A234B9A420AD2D34321495B18D9
S11302D003218B4304339B18002102C29342FCD1B7
S11302E01D4AFF211D4B8B439360FD3990235B0016
S11302F01B4AD1501B4AD3780325AB430224234322
S1130300D370D3780C27BB4308263343D370164BE2
S1130310987B30229043202210439873997BB943F1
S1130320314399739A7BAA4322439A730F4A5368C1
S113033080210B4353600E4B98470E4B9847FEE7C2
S1130340F0050000000000202C0400200400002020
S11303502C0400206C04002000ED00E000000000EC
S1130360007000410050004100480041004000413D
S1130370290400007903000010B5234B9847234B50
S11303801A6802218A431A601A68214810408022A0
S1130390520102431A601A681E481040802252001B
S11303A002431A60DA6B072082430A43DA63DA6B8A
S11303B019480240DA635A798A435A711A6C120E48
S11303C0120616490A431A64DA6E120E120614490A
S11303D00A43DA661A6B1206FCD50C4A536C1B0EE0
S11303E01B0610490B435364136F1B0E1B060B4370
S11303F0136713001A6BD203FCD5044A1368022155
S11304000B431360FEE7C0461501000000200042C4
S1130410FFCFFFFFFFF8FFFFFFFFFEFFFFFF00001E
S1130420FF7F0000FF3F000070B50D4E0D4D00240E
S1130430AD1BAD1005D0A300F35801349847A54275
S1130440F9D100F0C3F8084E084D0024AD1BAD10DF
S113045005D0A300F35801349847A542F9D170BDE3
S1130460D8050000D8050000D8050000E00500000C
S1130470034B10B5002B02D0024800F005F810BD64
S1130480000000009904000010B5010000230022C0
S1130490002000F01FF810BD70B5094B094CE41A98
S11304A0A41009D0084AA518AD00ED182B68013C2A
S11304B09847043D002CF9D100F092F870BDC04675
S11304C0EC050000F0050000FFFFFF3F7047C04649
S11304D07047C046F0B54E464546DE465746E0B541
S11304E0364D83B00600286898460F009146FFF702
S11304F0EDFF334B1C68A4235B00E058002852D066
S113050043681F2B13DC5A1C0192002E28D1019A38
S113051002339B0042601F502868FFF7D9FF002078
S113052003B03CBC90469946A246AB46F0BD254B71
S1130530002B3DD0C820400000E000BF002837D089
S1130540A42200235200A15843600160A05040320D
S1130550835004328350013301930023002ED6D0FC
S11305609A00924682444A46882154466250C422E4
S11305705200914681444A468739994012688B4615
S11305800A4394464A466146116084224146520019
S1130590A150022EBBD102005C468D32FF3211689D
S11305A00C431460B3E720004D30FF30E050A7E760
S11305B02868FFF78DFF01204042B1E7280400209E
S11305C0C80500000000000000000020F8B5C04687
S11305D0F8BC08BC9E46704771040000DD000000B2
S11305E0F8B5C046F8BC08BC9E467047B50000008C
S11305F000000000EC02002054030020BC03002093
S113060000000000000000000000000000000000E6
S113061000000000000000000000000000000000D6
S113062000000000000000000000000000000000C6
S113063000000000000000000000000000000000B6
S113064000000000000000000000000000000000A6
S11306500000000000000000000000000000000096
S11306600000000000000000000000000000000086
S11306700000000000000000000000000000000076
S11306800000000000000000000000000000000066
S11306900000000000000000010000000000000055
S11306A00E33CDAB34126DE6ECDE05000B0000001A
S11306B00000000000000000000000000000000036
S11306C00000000000000000000000000000000026
S11306D00000000000000000000000000000000016
S11306E00000000000000000000000000000000006
S10F0A100000000000000000480400206A
S9030000FC
